:1000000012C019C018C017C016C015C014C013C044
:1000100012C011C010C00FC00EC00DC00CC00BC06C
:100020000AC009C008C011241FBECFE5D4E0DEBF5E
:10003000CDBF02D02EC0E4CF83E081BB91E082E04F
:1000400092BB2FE33DE043E0215030404040E1F7D8
:1000500000C0000012BA2FE33DE043E021503040E1
:100060004040E1F700C0000082BB2FE33DE043E0E9
:10007000215030404040E1F700C0000012BA2FE3A9
:100080003DE043E0215030404040E1F700C0000037
:06009000D7CFF894FFCF6A
:00000001FF
