:1000000012C019C018C017C016C015C014C013C044
:1000100012C011C010C00FC00EC00DC00CC00BC06C
:100020000AC009C008C011241FBECFE5D4E0DEBF5E
:10003000CDBF5CD06DC0E4CF80EC82BB2FEF85EAF2
:100040009EE0215080409040E1F700C0000089EF21
:1000500082BB2FEF85EA9EE0215080409040E1F77F
:1000600000C0000084EA82BB2FEF85EA9EE02150A9
:1000700080409040E1F700C0000080EB82BB2FEF92
:1000800085EA9EE0215080409040E1F700C00000EA
:1000900008958FE388BB2FEF85EA9EE021508040D2
:1000A0009040E1F700C0000086E088BB2FEF85EAB2
:1000B0009EE0215080409040E1F700C000008BE5B9
:1000C00088BB2FEF85EA9EE0215080409040E1F709
:1000D00000C000008FE488BB2FEF85EA9EE021502E
:1000E00080409040E1F700C0000008958FEF81BB91
:1000F00087BB14BA83E085BBCFEF83B3823009F4AA
:100100009BDF83B3813009F4C4DFC2BB18BAF5CFDB
:04011000F894FFCF91
:00000001FF
