:1000000012C024C023C022C021C020C01FC01EC0F7
:100010001DC01CC01BC01AC019C018C017C016C014
:1000200015C014C013C011241FBECFE5D4E0DEBF3D
:10003000CDBF10E0A0E6B0E0E2EBF0E002C005903A
:100040000D92A437B107D9F702D031C0D9CF8FEFC5
:1000500087BB14BA83E085BB83B3823091F4E0E6BA
:10006000F0E08081329688BB2FEF85EA9EE0215038
:1000700080409040E1F700C0000020E0E437F20744
:1000800081F783B3813041F7E4E7F0E03297808174
:1000900088BB8FEF95EA2EE0815090402040E1F739
:1000A00000C0000080E0E036F80781F7D5CFF89473
:0200B000FFCF80
:1000B2003F0006005B004F0066006D007D000700F8
:0400C2007F006F004C
:00000001FF
