:1000000012C019C018C017C016C015C014C013C044
:1000100012C011C010C00FC00EC00DC00CC00BC06C
:100020000AC009C008C011241FBECFE5D4E0DEBF5E
:10003000CDBF02D07EC0E4CF17BA8FEF81BB12BA1A
:1000400088BB91E023E037E04FE05FE16FE37FE7BB
:10005000E6B3EE3F09F069C082BBAFE5EAEEF0E03F
:10006000A150E040F040E1F700C0000012BAAFE557
:10007000EAEEF0E0A150E040F040E1F700C00000FF
:10008000E6B3ED3F09F053C092BBAFE5EAEEF0E016
:10009000A150E040F040E1F700C0000022BBAFE516
:1000A000EAEEF0E0A150E040F040E1F700C00000CF
:1000B00032BBAFE5EAEEF0E0A150E040F040E1F7FE
:1000C00000C0000042BBAFE5EAEEF0E0A150E04026
:1000D000F040E1F700C0000052BBAFE5EAEEF0E00F
:1000E000A150E040F040E1F700C0000062BBAFE586
:1000F000EAEEF0E0A150E040F040E1F700C000007F
:1001000072BBAFE5EAEEF0E0A150E040F040E1F76D
:1001100000C0000082BBAFE5EAEEF0E0A150E04095
:10012000F040E1F700C0000093CF12BAA9CF12BA95
:060130008FCFF894FFCF11
:00000001FF
